:100000000C9471020C948E020C948E020C948E024D
:100010000C948E020C948E020C948E020C948E0220
:100020000C948E020C948E020C940C330C94E033DE
:100030000C946F2D0C948E020C948E020C948E02F4
:100040000C948E020C948E020C948E020C948E02F0
:100050000C948E020C94122E0C948E020C948E0230
:100060000C948E020C948E020C948E020C948E02D0
:100070000C948E020C948E020C948E020C948E02C0
:100080000C948E020C948E020C948E020C948E02B0
:100090000C948E020C948E020C948E020C948E02A0
:1000A0000C948E020C948E020C948E0204000500B7
:1000B00006000700080009000A000B000C000D00F4
:1000C0000E000F00040005000600070008000900EC
:1000D0000A000B000C000D000E000F0004000500CC
:1000E00006000700080009000A000B000C000D00C4
:1000F0000E000F00040005000600070008000900BC
:10010000FD377A585A000004E6D6B44602002101B1
:1001100016000000742FE5A3E0049D01195D003D69
:10012000888986D3DC0AE842C324925842588FD883
:10013000E75CA0D2616E26E888019A676C7887BC7C
:100140008D3709EA3FF4F5A53C79858A3A003D10E0
:100150008F7792E5A65B868CA6AA91F9B95CB3C5A8
:10016000D3A4B874DA9CFC48C48AE5725157E037CE
:10017000336D42BE9B5339E9F6F2FAA37D0BF419B5
:10018000142E09639D745466DB2D913EE4A77677A7
:10019000CC5ADD863CD45A8476E10306BA04D57382
:1001A000B2EB7BD2D986BC11E55FDA1BAD10D81853
:1001B000502C49FECA15729DBC0CB739DE65A4559A
:1001C0006C67B192611061523575DC4263C0B9C889
:1001D000A0FC885E063192A593538F9E778BF7988B
:1001E00062228C809A84D6839A88C9A97E41AA6AA1
:1001F00068091B293BFC78E2CCE380347295427499
:100200001210D6153D9A869195FD8375170B8DA01A
:1002100011094C21DEE4D44D469779798EC30FA5A0
:10022000AB84786CBD737E3DE0B5D72B7DF03E8509
:1002300027FCED222A9F78E90000000040401EAC18
:10024000A03FFB1F0001B5029E09000063A8DCA1CE
:10025000B1C467FB020000000004595A010001000C
:10026000AC04941DC61D000002000200A804941DE9
:10027000C61D000003000100AD04941DC61D000052
:10028000040002009204941DC61D8D1D050001008E
:10029000AE04941DC61D0000060002009404941DC7
:1002A000C61D000007000200AA04941DC61D000020
:1002B00008000100AF04941DC61D000012000200DA
:1002C000B004941DC61D000013000200B204941D6A
:1002D000C61D000014000100B404941DC61D0000DA
:1002E0001500000000009A1C141D00000000000012
:1002F000000000002A2B2800000000000000000081
:100300000000000000000029000000002C1E342026
:10031000212224342627252E362D3738271E1F204C
:100320002122232425263333362E37381F04050691
:100330000708090A0B0C0D0E0F10111213141516D5
:100340001718191A1B1C1D2F3130232D35040506D3
:100350000708090A0B0C0D0E0F10111213141516B5
:100360001718191A1B1C1D2F3130354C00000000C6
:10037000000000000000000000000000000000007D
:10038000000000000000000000000000000000006D
:100390007E0F00D4FFFFFFC7000000781C0376002B
:1003A000690061006C003A006600360034006300AA
:1003B000320062003300630000000C036800750027
:1003C0006D006C00610000000A036A006D006E00A1
:1003D000770000000403090409025B00030100A088
:1003E000FA090400000103010100092111010001C3
:1003F00022400007058103080001090401000203EF
:1004000000000009211101000122220007058203DA
:100410002000010705030320000109040200010375
:10042000000000092111010001223B00070584039F
:100430002000011201000200000008EDFE00000093
:1004400001010203010660FF0961A10109621500B3
:1004500026FF009520750881020963150026FF001C
:10046000952075089102C005010906A101850605C0
:100470000719E029E7150025019508750181020596
:1004800007190029EF1500250195F0750181020576
:1004900008190129059505750191029501750391CA
:1004A00001C005010906A101050719E029E71500AA
:1004B00025019508750181029501750881010507DF
:1004C000190029FF150026FF009506750881000513
:1004D000081901290595057501910295017503918A
:1004E00001C011241FBECFEFDAE0DEBFCDBF11E0A7
:1004F000A0E0B1E0E0EFFCE602C005900D92AE3363
:10050000B107D9F724E0AEE3B1E001C01D92A73CEA
:10051000B207E1F70E9498130C944B360C9400003C
:1005200081E008959C013A9521153F4150F5FC0169
:10053000EE27F170BC0166277270AC01442754703D
:100540009C012227387094FF0EC080E1EF2B09F444
:1005500080E0672B09F08062452B09F08064232B33
:1005600089F08068089581E0EF2B09F480E0672B23
:1005700009F08260452B09F08460232B19F0886014
:10058000089580E00895CF93DF93EB010E949202DB
:10059000FE010995DF91CF910895CF93DF93EC0190
:1005A000805E9109089720F063E575E0209711F4CB
:1005B00065E475E0CE010E94C3028C2F0E94CC043A
:1005C000DF91CF910895CF93DF93EC010E94F60461
:1005D000CE01805E9109089720F06AE575E02097CA
:1005E00011F46CE475E0CE010E94C302DF91CF915B
:1005F000089581E0089581E008950E94FB02089526
:1006000008950E9400030895A5E0B0E0EAE0F3E059
:100610000C94A33549835A833091450189819A818D
:10062000311119C0662399F0222389F00E944109F3
:10063000182F682F89819A810E941D0969817A810A
:10064000812F0E946A1B2596E3E00C94BF350E941F
:100650002F09182FF3CF0E94410969817A81F1CFC8
:10066000FC01262F86819781009739F440815181C2
:100670006281738184810E9404030895CF93DF9384
:10068000EC0161E00E943003BE010E949925DF91D8
:10069000CF910895CF93DF93EC0160E00E94300387
:1006A000BE010E940103DF91CF910895E1E0F0E0E7
:1006B000DF0102C0AA0FBB1F6A95E2F7BD01DF018F
:1006C00002C0AA0FBB1F4A95E2F76A2B01C0EE0FCA
:1006D0002A95EAF7962F9823961302C08E2B089539
:1006E000E0958E230895242F462F682F80915A017C
:1006F0000E9456030E947D0808950E945312089597
:100700000E945712089508950E946B050E9483036A
:100710002FEF84E39CE0215080409040E1F700C03F
:10072000000008950E9484030E94362E08950E94BE
:1007300084030E94472E08950F931F93CF93DF9356
:10074000EC018B010E94572BB801CE010E940A14C4
:10075000811106C080E0DF91CF911F910F91089524
:10076000B801CE010E945E198823A1F3B801CE0121
:100770000E94FD02882371F3B801CE010E94A828CF
:10078000882341F3B801CE010E94782B882311F30E
:10079000B801CE010E94A1228823E1F2B801CE0166
:1007A0000E94C62A8823B1F2B801CE010E94081F18
:1007B000882381F2B801CE010E944927882351F293
:1007C000F8018281882361F0CA35FDE5DF0701F178
:1007D00058F4C115ECE5DE0791F0CE3DDC4591F013
:1007E000C8010E94F902B7CFCC358DE5D80769F072
:1007F00090F0C73ADD45A1F70E949703ABCF0E9466
:100800009203A8CF0E948A0FF7CF0E94C40EE8CFB0
:100810000E94CE0EE5CF0E94D20EE2CFCF93DF939F
:10082000EC0161E00E943003BE010E949C03DF9155
:10083000CF9108950E944C2D0E94370408950E9484
:100840003B040E94512D089508950E9424040895A8
:1008500081E008950E94280408950895CF93C82F39
:100860000E9425048C2F0E942A04CF91089580E0D5
:100870000E942E0408950E94152C0E942E040895B3
:10088000CF930E94152CC82F809140018C1779F0CE
:10089000C09340010E94DB2D60934101709342019F
:1008A00080934301909344018C2F0E942E04CF919A
:1008B0000895019708F40895EFE9FFE03197F1F703
:1008C00000C00000F6CFADE0B0E0E9E6F4E00C9443
:1008D000A43549875A876B877C878D878C859D8552
:1008E000892B29F0CA0189238F3F09F045C08B85E8
:1008F00081110E94BD0D1D821E821F82188685E017
:10090000FE013996DE01119601900D928A95E1F76C
:100910008091310482FF12C08091940490919504DB
:10092000892B61F00E94790D882319F082E00E94E2
:10093000930E0E94550D81110E94F70D8C819D81AF
:10094000892B71F429813A814B815C816D817E8193
:100950008F8198850E94A40C2D96E2E00C94C035FE
:1009600089819A8189238F3F69F3CE0101960E9484
:100970003E038111E7CFF0CF80914601909147016E
:1009800001969093470180934601B1CFFC0180818D
:1009900091810E946E090895CF93C82F8823B9F0E2
:1009A0008CEF8C0F813AA8F46C2F8091000190910C
:1009B00001010E947C2C882329F08C2F0E94430D7A
:1009C0000E94050E8C2F0E943B0D0E94050ECF91B8
:1009D000089580E28C0F8830D0F7C77081E001C0A5
:1009E000880FCA95EAF70E949D0DEFCF882339F151
:1009F0009CEF980F913A28F40E94430D0E94050E37
:100A0000089590E2980F983050F4877091E001C0FB
:100A1000990F8A95EAF7892F0E94A30DEFCF9BE5E6
:100A2000980F933028F490E080E00E943C2C0895C9
:100A3000885A873120F490E080E00E94522C08957B
:100A40001F93CF93DF93182FEB010E94CC042097C4
:100A500039F4812F0E94F604DF91CF911F91089500
:100A60008FE99FE00197F1F700C000002197EFCFD9
:100A70006091B2047091B304893321F06091B004A5
:100A80007091B1040E9420050895882321F00E94EE
:100A90009D0D0E94050E0895882321F00E94A30D4C
:100AA0000E94050E0895882321F00E94B00D0E9437
:100AB000050E0895882321F00E94B60D0E94050EB0
:100AC00008950E94BD0D0E94050E08950E944B0DD1
:100AD0000E94610508950E94AA0D0E94660508956E
:100AE00092959F70963091F058F4925F9F7092307B
:100AF00058F4803F19F030F4883E30F481E00895D6
:100B00009A5FF4CF843FD1F380E00895883EB0F33C
:100B1000813FD1F7F3CFFC0183819481892B29F0A8
:100B20008081918189238F3F39F480E008950E946C
:100B300061100E9470050895868197810097B9F72A
:100B4000808191810E946E09F4CFB0E0A0E0EBEAD1
:100B5000F5E00C949D356C01EB01FC01F2801581F0
:100B600012951F700E94930DE82E8823B9F0EF2C88
:100B7000FF20A1F08D2F807F803421F080E28C0F48
:100B80008830D0F08091310482FF16C082E00E944C
:100B9000930E0E94930D91E0E82EE926BD2EB294AB
:100BA0008FE0B822FBE0FB1508F478C0EB2DF0E0F5
:100BB000E35BF94C0C948735E12CF0CF0D2F0F70CF
:100BC0008D2F807F11F00295007FFF2099F0002388
:100BD00059F080E28C0F883010F0C11107C0802FCF
:100BE0000E949D0D0E94050E8C2F50C0802F0E94E8
:100BF000B00DF8CF8C2F0E94F604002309F44EC0EC
:100C000080E28C0F883010F0C11104C0802F0E9448
:100C1000A30D03C0802F0E94B60D0E94050E3EC09A
:100C20000D2F0F708D2F807F803211F00295007F85
:100C3000CC23F1F0C13009F4A0C0FF2009F4A9C011
:100C4000112309F475C020E0F601408151816281D1
:100C5000738184810E940403B6010E94BD1E81112C
:100C6000C3CFF601858180FFBFCF8F70858360C0C1
:100C70008091310482FD3DC0FF2059F0002329F00E
:100C8000802F0E949D0D0E94050E80E00E94CC04E2
:100C900005C080E00E94F6040111B8CF2B2D28502A
:100CA000330B2430310520F40E94152C0E942E04B1
:100CB000CE010E94700581117BC1109247011092F4
:100CC0004601EE2089F00E94750D80FD0DC0F601F1
:100CD00012820E946F0D0E949108C6010E9418089E
:100CE0000E946F0D0E949D08CDB7DEB7E9E00C941D
:100CF000B935FF20F9F0111106C00E94CC0D802BF0
:100D00000E944505CBCF113031F40E94CC0D802BD1
:100D10000E94E00DC3CF8091AE04823070F3811346
:100D2000ECCF0E94F70D0E94520D802B0E94D30D34
:100D3000802FE6CF111103C00E94F70D15C08091DE
:100D4000AE041130A9F4823008F4A8CF0E949A0DA5
:100D5000802309F4A3CF0E94F70D0E94520D902F1B
:100D6000909589230E94D30D802F0E944C0596CF29
:100D7000823010F31813E0CF91CF8091B404FF209C
:100D800021F0811708F48ACFD3CF181708F086CF47
:100D9000EBCF112349F38091B2049091B304C9338E
:100DA00021F08091B0049091B1040E9459048C2FDD
:100DB0000E94F60473CF8D2F837081F5F1106ECFF2
:100DC0004C2F429546954770440F440F8C2F8F70DF
:100DD000042E01C0880F0A94EAF72C2F2071C4FF5B
:100DE00007C02FE030E001C0220F4A95EAF72095B6
:100DF0009D2F969596959370822B923049F058F4DA
:100E0000913019F00E946B0849CF0E94650846CFC7
:100E10000E94710843CF0E94620840CF8695FF2050
:100E200011F08D2F8170882309F438CF4C2F429513
:100E300046954770440F440F8C2F8F70042E01C0CD
:100E4000880F0A94EAF72C2F2071C4FF07C02FE007
:100E500030E001C0220F4A95EAF720959D2F969524
:100E600096959370822B923049F058F4913019F096
:100E70000E94BC0813CF0E94B60810CF0E94C2087F
:100E80000DCF0E947D080ACF0D2F0F70FF2029F093
:100E9000802F0E9491088C2F33CF8C2F0E944C05FD
:100EA000802F0E949D08FACEC23F51F160F4C03FEE
:100EB000B9F0C13F81F0FF2009F475C0111194CE43
:100EC0008D2F8F7121C0C33F11F1C43FA1F78091D5
:100ED000310482FD26C08D2F8F71FF2011F314C0C5
:100EE0008091B404FF2041F0181708F0D7CE8D2F61
:100EF0008F710E94AA08D2CE811708F4CFCEF7CF07
:100F00008D2F8F71F110CDCF0E949108C7CEFF2099
:100F100029F08D2F8F710E948808C0CE0E9484080E
:100F2000BDCE8091AE04823040F1FF20D1F00E940E
:100F3000750D843041F40E94890E8D2F8F710E94AF
:100F40009D08E12CABCE8091AE041817D0F70D2F81
:100F50000F71802F0E94910863E0802F0E946B0E1A
:100F6000F0CF181730F00E94890E64E08D2F8F713A
:100F7000F5CF81E00E94930EE4CFFF2051F00D2FBA
:100F80000F71802F0E94910863E0802F0E946B0EEA
:100F900085CE81E00E94930E123008F47FCE82E06D
:100FA0000E94930E7BCE1111F6CE8D2F8F7179CFCB
:100FB000FF2019F0111181CE84CE11117ECE20E0D8
:100FC000F601408151816281738184810E94040312
:100FD000B6010E94C81E882309F46FCE8091460195
:100FE00090914701029709F068CE8C2F0E94380536
:100FF00064CE0F931F93CF93DF93EC018E819F817B
:10100000009781F00E9461108C010E94C8080E9424
:101010006108B801CE010E94A505DF91CF911F9113
:101020000F910895688179818A810E947909ECCFB6
:10103000CF93DF93EC018B819C81892B29F08881F0
:10104000998189238F3F51F4DF91CF910895CE018B
:101050000E94F907CE010E944A03F6CFCE010E94FA
:101060000E048111F4CF0E94930D882369F38A81C5
:10107000882351F38091310482FFE6CF82E00E9401
:10108000930EE2CFA5E0B0E0E8E4F8E00C94A435DC
:101090002596E2E00C94C035A8E0B0E0E2E5F8E087
:1010A0000C94A4352896E2E00C94C03508950E9473
:1010B000560808950E94570880935B010E946105BD
:1010C000089508950E945A08089590915B01892B14
:1010D0000E945A08089590915B0189230E945A0842
:1010E000089590915B0189270E945A0808950E94F3
:1010F000560808950E94770808950E947A08809300
:101100005A010E946105089580E00E947D080895BB
:1011100091E001C0990F8A95EAF7892F0E947D0816
:10112000089521E030E001C0220F8A95EAF780910E
:101130005A01822B0E947D08089521E030E001C011
:10114000220F8A95EAF7209580915A0182230E9406
:101150007D08089521E030E001C0220F8A95EAF76A
:1011600080915A0182270E947D08089590915A012A
:10117000892B0E947D08089590915A0189230E942D
:101180007D08089590915A0189270E947D0808954D
:101190000895262F277091E001C0990F2A95EAF74C
:1011A00023E0769567952A95E1F7FB01EE0FFF1F87
:1011B000E60FF71FE40FF51F50E040E0682F70E0E6
:1011C0008191DF0111979B01042E02C0369527956E
:1011D0000A94E2F7217021952827292328272C93A8
:1011E0004F5F5F4F4330510559F70895A82FA770FF
:1011F00023E0969587952A95E1F7FC01EE0FFF1FF6
:10120000E80FF91FE60FF71F50E040E080E0219162
:1012100030E00A2E02C0369527950A94E2F7217035
:101220003327042E01C0220F0A94EAF7822B4F5F66
:101230005F4F4330510559F70895262F973070F4CA
:10124000863060F4682F70E086E0989F600D711D15
:10125000112448E451E0822F0E94C9080895292FE3
:10126000973068F4863058F490E068E471E036E036
:10127000239F800D911D11240E94F608089580E09F
:101280000895CF92DF92FF920F931F93CF93DF9336
:101290006C0100915A0180915B01082BC7E0D0E0FE
:1012A00010E0FC2EC8010C2E02C0959587950A947B
:1012B000E2F780FD0CC02197A0F7F12C8F2DDF9174
:1012C000CF911F910F91FF90DF90CF900895B601BD
:1012D0008C2F0E942E11019771F3F0CFCF93DF93E3
:1012E000EC010E944109BE010E942E11DF91CF91B5
:1012F00008951F93CF93DF93EB01909145019923BC
:1013000039F0CB010E946E09DF91CF911F910895B2
:10131000882369F0CB010E944109182F682FCE0164
:101320000E941D09BE01812F0E942E11EDCFCB011D
:101330000E942F09182FF6CFCF93DF93C0915C0145
:1013400080915D018C1303C0DF91CF910895D0E0AF
:10135000FE0183E0EE0FFF1F8A95E1F7E25AFE4F90
:101360002081318142815381648175818681978199
:101370000E944C082196C770E3CF20919E013091C6
:101380009F014091A0015091A1016091A201709133
:10139000A3018091A4019091A5010E944C08089599
:1013A00020915C0190915D01291302C080E00895B5
:1013B00030E0F90153E0EE0FFF1F5A95E1F7E25AD2
:1013C000FE4F5181561306C05081581303C05281FD
:1013D000541304C02F5F3F4F2770E6CF81E008957C
:1013E000EF92FF920F931F93CF93DF938091A3010E
:1013F000807F31F48091A001C0915C01811117C000
:10140000CDB7DEB7E6E00C94BC352091A101309158
:10141000A201D0E02115310541F080919E0190910B
:101420009F01482F49234F3F39F42196C77080917F
:101430005D018C13EACFE4CF8E0143E0000F111F52
:101440004A95E1F7F801E25AFE4F41814913EDCF89
:1014500090819813EACF82818111E7CFE380F480F5
:10146000E21AF30A60E08EE991E00E9430036EE92F
:1014700071E00E943E19E816F906B8F68091A301C2
:101480008F7080618093A301F801ED59FE4F808138
:101490008F70806180838EE991E00E9418080E941D
:1014A0009C09AECFA5E1B0E0E8E5FAE00C949635F2
:1014B0008C0185E0F801DE01519601900D928A952C
:1014C000E1F7D8014C9011965C90119712967C90A0
:1014D00012971396ED90FC9060E08EE991E00E94E7
:1014E00030036C018EE9882E81E0982E2091A101B5
:1014F0003091A2012115310541F080919E0190911A
:101500009F0189238F3F09F0CCC1711007C1C80129
:101510000E94180879C0E114F10429F0852D842176
:101520008F3F09F011C180E0B82FB170EB2E80FF22
:1015300029C0472D652D842D0E94D009F82E8111D8
:1015400021C0498A5A8A89899A890E946E09292F5D
:1015500022952F70223050F0243078F49F7051F093
:10156000F8019581907F31F46F2C1AC19F7011F0B2
:101570008823D1F3805E8830B8F3C8010E94180830
:10158000FE2CF2CF772009F40BC18091A30181607A
:101590008093A301612C04C1892B49F080919E01A5
:1015A00090919F01282F29232F3F09F0FEC0C801E9
:1015B0000E948B05882309F4AACF772009F4A7CFCE
:1015C0008091A3018032A0F020919E0130919F0173
:1015D0003A8729871B86FD86EC868E878091A40139
:1015E0009091A501988B8F87CE0109960E941808CB
:1015F00088E0F801AEE9B1E001900D928A95E1F73B
:101600000E94F0090E94BD0966246394C9C021119B
:1016100012C07E2DFD8AEC8AA201672D8D890E9461
:1016200042088EE991E00E94180888E0F4011192C6
:101630008A95E9F786C18091A1019091A201892B39
:1016400049F080919E0190919F01282F29232F3FDF
:1016500009F0D3C0C8010E948B05882309F457CF35
:10166000772009F454CF8091A301803208F22091B1
:101670009E0130919F013A8329831B82FD82EC8277
:101680008E838091A4019091A50198878F83CE01CC
:101690000196ACCF60E08EE991E00E9430036EE9E4
:1016A00071E00E943E19A816B90650F5672C772004
:1016B00009F42DCF8091A1019091A201892B49F0CD
:1016C00080919E0190919F01282F29232F3F09F09F
:1016D000BAC0C8010E948B0581118ACF8091A301F5
:1016E00081608093A301C8010E94180859C088E056
:1016F000F801AEE9B1E001900D928A95E1F750C092
:101700007E2DFD8AEC8AA201672D8D890E944208F8
:1017100088E0F40111928A95E9F76CC0C8010E9433
:101720008B05682E882309F4F2CE88E0F801AEE933
:10173000B1E001900D928A95E1F78EE991E00E9467
:10174000C6040E94F00956C081E08725EDCE81E0F5
:101750008725DAC0D80111962C912913CCC0F80145
:1017600090819813C8C02091A4013091A501868171
:1017700097812817390709F0BEC07110BCC080914D
:10178000A3018F7080618093A3010E94BD098EE93F
:1017900091E00E9418088091A301D80115968C93BE
:1017A000862D6596E0E10C94B235F801218129136C
:1017B000FECED8019C919813FACE2091A4013091CD
:1017C000A50116968D919C9117972817390709F056
:1017D000EECE8091A3017110EACE15968C93C801CC
:1017E0000E94180888E0F801AEE9B1E001900D927E
:1017F0008A95E1F70E94BD09D3CFD80111962C91AB
:10180000291328CFD8019C91981324CF2091A401AB
:101810003091A50116968D919C911797281739073D
:1018200009F018CF711016CF8091A30115968C93F3
:10183000C8010E941808EEE9F1E088E0DF011D927E
:101840008A95E9F7ADCFF8012181291342CFF8013C
:10185000908198133ECF2091A4013091A5018681FB
:1018600097812817390709F034CF6EE971E0C60176
:101870000E94C21E81113BCF8091A30180FD37CF12
:10188000982F907F09F433CFD80115968C93159734
:10189000903F09F4A4CF982F907F905F8F70892B91
:1018A0009CCF6090A0015701A21AB30A662009F4E8
:1018B000F1CE60E08EE991E00E9430036EE971E0C4
:1018C0000E943E192091A301207FA816B90608F0B6
:1018D0009ECE8091A1019091A20121115DCE672C35
:1018E000892B49F080919E0190919F01282F2923F7
:1018F0002F3F09F02FCFE114F10429F0852D842129
:101900008F3F09F024CF80E080FF05CE472D652D65
:10191000842D0E94D009882309F4FDCD6EE971E081
:10192000C6010E94B91E882309F4F5CD8EE991E025
:101930000E94180888E0EEE9F1E0DF011D928A9527
:10194000E9F70E94BD0926CEA0E1B0E0EAEAFCE09A
:101950000C94A43529873A874B875C876D877E87EF
:101960008F87988BCE0109960E94520A8823A9F08E
:101970008C859D85892B39F029853A85822F832393
:101980008F3F09F06FC080915C0190915D018913D8
:1019900043C06096E2E00C94C03588E0FE013996C1
:1019A000DE01119601900D928A95E1F78C859D8557
:1019B000892B49F389859A8589238F3F21F3A0914B
:1019C0005D01B0E0CD0101968770992720915C01FF
:1019D0002817190671F40E946B0510925D01109290
:1019E0005C0188E0EEE9F1E0DF011D928A95E9F7FC
:1019F000CACF93E0AA0FBB1F9A95E1F7A25ABE4F38
:101A000098E0FE01319601900D929A95E1F780934E
:101A10005D010E949C09B7CFB8E08B9FC0011124E3
:101A2000825A9E4F0E94520A882309F4B2CFE09155
:101A30005C0128E0E29FF0011124E25AFE4F208170
:101A400031814281538164817581868197810E94B1
:101A50004C0880915C0190E00196877099278093F3
:101A60005C0191CF4B855C856D857E858F859889DE
:101A70000E944C0888CF682F80910001909101014D
:101A80000E94FC2C0895682F809100019091010123
:101A90000E940A2D089580910001909101010E94F9
:101AA000182D08958091CB01089580919404909110
:101AB0009504892B89F00E94CF2D2091C901309186
:101AC000CA01AC01421B530B81E020919404309178
:101AD00095044217530708F480E0817008958091BF
:101AE000C80185958595859508958091C801877071
:101AF00008950E94CF2D2091C6013091C701821B0D
:101B0000930B20919404309195048217930748F029
:101B10008091C80182FB882780F991E08927817034
:101B2000089580E0FCCF9091C801977081E009F49E
:101B300080E008958091F00108959091F001892B43
:101B40008093F001089580959091F00198239093EF
:101B5000F00108951092F00108958091EF01089529
:101B60009091EF01892B8093EF01089580959091DA
:101B7000EF0198239093EF0108951092EF010895DB
:101B80008093EE0108951092EE0108958093ED0187
:101B900008951092ED0108958091CC010895089563
:101BA0000E94CF0D08959091CB01981721F080935A
:101BB000CB010E94D00D089508950E94DC0D089578
:101BC000CF93C82F8091310482FF0FC08091CC0148
:101BD0008C1759F00E94CF2D9093CA018093C901B0
:101BE000C093CC018C2F0E94DD0DCF910895809180
:101BF000CC01882349F01092CC011092CA011092B6
:101C0000C90180E00E94DD0D0895CF93DF93E0913C
:101C10000001F09101018091F0018083E0910001C9
:101C2000F091010180819091EF01892B8083809157
:101C3000CC018823E9F08091940490919504892B3C
:101C400029F00E94550D81110E94F70DE0910001CD
:101C5000F091010180819091CC01892B808380914A
:101C60000001909101010E94682C81110E94F70DE2
:101C7000E0910001F09101018091ED01982F909584
:101C8000808189238083E0910001F09101018081AE
:101C90009091EE01892B8083C0910001D0910101C8
:101CA00040E250E066EA71E0CE010E94D435892B13
:101CB00059F080E2FE01A6EAB1E001900D928A950A
:101CC000E1F7CE010E94222CDF91CF910895089573
:101CD0000E94670E08959091310492FF17C098E01A
:101CE000899F90011124622B6093C8010E94910882
:101CF0000E94CF2D9093C7018093C6018091C801A7
:101D00008595859585950E94680E08950E94910895
:101D100008951092C8011092C7011092C60180E088
:101D20000E94680E08959091C80180958923809340
:101D3000C801282F277091F4282F082E000C330B90
:101D40009217130659F09091310492FF07C08595C0
:101D5000859585950E949D080E94890E0895909111
:101D6000310492FB222720F9281769F080FB92F9B1
:101D70009093310480913004909131040E94010FBE
:101D800082E00E94930E08958091310482FB88279F
:101D900080F991E089270E94AF0E089581E00E94AA
:101DA000AF0E089580E00E94AF0E08956FEF7FEFB1
:101DB00090E080E00E942D36089590E080E00E943F
:101DC0000936883E9E4F19F40E94A513089580E0BD
:101DD000089582E090E00E940136089583E090E04B
:101DE0000E9401360895CF9384E090E00E9401366E
:101DF000C82F82E290E00E940136982F8C2FCF915D
:101E00000895CF93C92F682F84E090E00E940F3689
:101E10006C2F82E290E00E940F36CF910895AB01C3
:101E2000BC018FE090E00E9421360895AB01BC0117
:101E300083E190E00E942136089560E070E0CB01DC
:101E40000E94160F089560E070E0CB010E940F0F12
:101E50000E941D0F089568EE7EEF90E080E00E94E2
:101E60002D3660E082E090E00E940F3660E083E073
:101E700090E00E940F3610925B0160E084E090E0F9
:101E80000E940F3664E082E290E00E940F3660E02C
:101E900085E090E00E940F3660E086E090E00E94CE
:101EA0000F366FEF87E090E00E940F3640E050E081
:101EB000BA0188E090E00E94213660E08DE090E079
:101EC0000E940F3640E050E0BA0188E190E00E94A5
:101ED000213660E087E190E00E940F3640E050E05C
:101EE000BA018CE190E00E94213670E060E080E26F
:101EF00090E00E942D3640E050E0BA0188E190E089
:101F00000E94213680E00E94BE130E94ED130E94C1
:101F1000230F08950E942B0F0895682F8EE090E004
:101F20000E940F3608950E94DB2D6093FE0170938E
:101F3000FF0180930002909301026093FA01709375
:101F4000FB018093FC019093FD010895089508958D
:101F50000E94A70F089508950E94AB0F089588E18D
:101F600092E10E940B2C0E944B160E94E11D0E94E0
:101F7000A60F0E94A80F089581E008950E94BC0F4B
:101F80000895089508950E94C10F0E94C20F0895F8
:101F90000E9437120E942D0408950E94C62D0E94AF
:101FA000FD130E94FB120E94C80F0E94AC0F0895FF
:101FB0000E946C280E94D32B0E9452250E94662208
:101FC0000895AAE0B0E0E7EEFFE00C949C350E9493
:101FD000111383EFA82E81E0B82E750110E0F701F0
:101FE00001917F01812F0E945A121F5F173009F45F
:101FF00040C00817A1F38091020281FD0E94601287
:102000000E94BE0FC82E10E0812F0E945A12082F86
:10201000F50181915F01081731F1D02ED826F12CFE
:10202000EE24E3948D2D8E21B1F0CC20A1F0FE8220
:102030001F8391E0802F8E2109F490E098870E9401
:10204000CF2D8160782F9A8789874E815F8168853F
:102050008A850E946304F394EE0CF6E0FF12E2CF4F
:10206000F501319700831F5F173071F60E94930FBF
:1020700020C00813C0CF0E94CF2D8C018091F101A8
:102080009091F20108171907A1F08FEF89838A83D5
:102090001B820E94CF2D8160782F9D838C83498184
:1020A0005A816B818D810E9463041093F201009329
:1020B000F1010E94D80F0E9440042A96EAE00C9495
:1020C000B835CF93DF930E943311EC01811523E5DE
:1020D000920790F5811532E5930708F08EC08115BF
:1020E00040E29407C8F4C11581E0D80788F4C53AE6
:1020F000D10548F4C430D10558F4C130D10541F0C0
:10210000D0E0C0E005C0CE01805E91090897C0F71D
:10211000CE01DF91CF910895811521E5920708F056
:1021200067C0811530E5930708F04EC081159044D3
:1021300038F3DF70D06AECCFC11586E5D807F0F42C
:10214000C11525E5D20708F070C0C11534E5D307E5
:1021500008F066C0CE018370992721E030E002C00C
:10216000220F331F8A95E2F7C695C69540E2C49FB9
:10217000E0011124C22BD32BDA68CACFC1154AE57E
:10218000D40778F4C11589E5D80708F059C0C115FE
:1021900028E5D20708F4B4CFDC2FCC27C06FD06A73
:1021A000B7CFCE0190568115904208F0A9CF8D2F60
:1021B0008F710E94D51190E0982F882788279F71F2
:1021C0009C012C2BE9013AC0282F269526952370D7
:1021D00040E2249F900111248370C1E0D0E002C04E
:1021E000CC0FDD1F8A95E2F7C22BD32BDD6890CF91
:1021F000D82FCC27C16FD06A8BCF8370992721E06D
:1022000030E002C0220F331F8A95E2F7C695C695CB
:1022100080E2C89FE0011124C22BD32BDC6878CF69
:10222000DC2FCC27C46FD06A73CF8C2F0E94D511BE
:10223000C82FD0E0DC2FCC27CC27DF71D06268CF4D
:102240008C2F8F700E94D51134E0D695C7953A95A2
:10225000E1F7CF709C2FEC01D0695ACF0E946A1B26
:102260000E946110089582389105B9F1B0F481336C
:10227000910509F47DC048F48932910509F46DC0D7
:102280008A32910509F47BC008958533910509F4DC
:102290005FC08933910509F10895833E9105D9F115
:1022A00038F4803E910529F1823E910579F1089537
:1022B000863E9105D9F1873E910509F43EC0843EE2
:1022C000910541F52091310421FF24C08091300413
:1022D00084FD19C087EE90E00895209130042370AA
:1022E00009F05AC02091310423FF14C089E290E024
:1022F00008952091300420FD38C03091310430FF22
:1023000009C024FF43C090E080E00895209130048C
:1023100022FDF7CF08952091300422FD3AC030917C
:10232000310430FD39C024FFF5CFEDCF20913004CA
:1023300023FFF0CF24FDE7CFCDCF2091300423FD44
:102340002EC03091310431FFEECF84EE90E008953D
:102350002091300425FFDECFC9CF2091300425FD28
:1023600021C02091310423FFD5CF89E390E0D2CF63
:102370002091300426FFCECF8AE290E0089520918C
:10238000300426FFC7CF81E390E0089583EE90E00C
:10239000089582EE90E0089580EE90E0089586EE34
:1023A00090E0089585E390E008959091300492FFC5
:1023B00006C0282F28712830F9F4877F846093FFA6
:1023C00006C0282F28712831F1F4877E846120917E
:1023D000310420FF06C0382F38713830D9F4877F98
:1023E000816021FF06C0282F28712831D1F4877E13
:1023F000816194FD877E0895282F24712430F9F699
:102400008B7F8860DCCF282F2471243101F78B7EED
:102410008861DDCF382F3171313019F78E7F8860B8
:10242000E0CF282F2171213121F78E7E8861E1CF05
:1024300080E008950E94D60E08950E9411132FEF98
:1024400086E791E0215080409040E1F700C0000015
:102450000E94111380E00E945A1280FF04C00E9463
:102460001A120E94362E08950E941D1208950E948D
:10247000DD0E811102C00E948A0F0E94E90E809336
:1024800002020E94F30E90933104809330040E9464
:1024900034120E94EE0E0E94620880915A010E943E
:1024A0007A08089508950E945212089508950E948E
:1024B00056120895E82FF0E0E75CFB4F8081089505
:1024C000089580EA8A95F1F7089500C008950E9462
:1024D00061120895F894E82FE295EF70F0E031A1D1
:1024E000282F2F7081E090E001C0880F2A95EAF72D
:1024F000982F9095932391A392A1892B82A37894EE
:102500000895CF93DF93C8E2D1E089918F3F11F016
:102510000E946A1281E0CF32D807B9F7C2E2D1E057
:1025200089918F3F11F00E946A1281E0C832D8076A
:10253000B9F7DF91CF910895B0E0A0E0E2EAF2E1CF
:102540000C949E35EC01D62E062F10E0C801885D54
:102550009E4F7C01FC0180818F3F09F445C0F894B7
:10256000E82FE295EF70F0E091A18F7021E030E06C
:1025700001C0220F8A95EAF7892F822B81A382A1BD
:102580002095282322A378940E946512E2E2F1E0CC
:1025900048E251E031E0C12C21912F3F51F1A22FAF
:1025A000A295AF70B0E090968C9190E02F7002C031
:1025B000959587952A95E2F780FD1BC0832FC82A41
:1025C000330F4E175F0741F7F70180818F3F11F0FE
:1025D0000E946A1261E0C11001C060E08D2D0E946E
:1025E0006712C00FD11FC882CDB7DEB7E8E00C94E8
:1025F000BA3580E0E4CF0E94811287E0E9E3F4E09D
:10260000DF01982F1D929A95E9F7E2E3F4E0DF01EC
:102610001D928A95E9F787E00E944C130E947D0382
:102620000895A7E0B0E0E7E1F3E10C94A1358E0155
:102630000F5F1F4F87E0F80111928A95E9F7F12C9F
:102640006F2DC8010E949C12F394F7E0FF12F8CF9F
:1026500047E050E0B80182E394E00E94D43521E0E5
:10266000009709F420E0892B41F087E0F801A2E30C
:10267000B4E001900D928A95E1F747E069E374E0D8
:1026800082E394E00E944D13182F0E948003812F53
:102690002796E5E00C94BD350895CF92DF92EF9236
:1026A000FF920F931F93CF936C017B01042F222382
:1026B00049F081E0809305020E94CF2D909304029F
:1026C00080930302C0910502C1110AC0C0E08C2FA3
:1026D000CF911F910F91FF90EF90DF90CF900895D1
:1026E00080910302909104020E94E72D059770F3F8
:1026F00010E0A801B601C7010E94D435892B41F032
:10270000A801B601C7010E94E13510920502DFCF92
:10271000C0E0FBCF0E94E02F0E94CD0F0E94ED2F62
:1027200008950E94F22F0E94E10F0E940C3008953C
:102730000E94682D0E94C62F0E94AF0F0E948A132C
:102740000E9491130E94C30FFBCF83E290E00E948E
:102750000136803F89F484E290E00E94013685349E
:1027600059F485E290E00E94013691E0873109F04A
:1027700090E0892F8170089580E0FCCFCF93C82F1F
:102780006FEF811160EF83E290E00E940F366FEFF0
:10279000C11165E484E290E00E940F366FEFC11131
:1027A00067E185E290E00E940F36CF910895089589
:1027B00086E290E00E940136682F70E090E080E0B1
:1027C00008950895CF93C62F0E94E1136C2F86E2DF
:1027D00090E00E940F36CF91089580E00E94BE13D2
:1027E00060E070E0CB010E94E2130E948B1A0E940D
:1027F000D61B81E00E94BE1308950E94D7130E9449
:10280000D8130E94E1130E94A513811102C00E94F7
:10281000ED130895CF93FB01C281CC2309F19C01F4
:1028200022513F452031310520F582510E94E61B9F
:10283000C0E08C2FCF91089581E00E94910843E081
:1028400062E081E00E947303F3CF81E00E949D0863
:1028500043E062E081E00E947303EBCF82E0F6CFB9
:102860008031FFE59F0789F381319F45B9F3C1E0CE
:10287000E0CF8031EFE59E07F9F281319F45C9F63F
:1028800082E0DBCF2FEFFC0120830895EF92FF92CF
:102890000F931F93CF93DF93EC01062F8881209134
:1028A0004D0330914E03232B79F08E3F09F057C032
:1028B0008981833020F08550833008F050C0602F2C
:1028C000CE010E9452164BC08C3009F4A0C0D0F447
:1028D000843009F483C060F4823009F449C008F000
:1028E00070C08130C9F1602FCE010E94421437C000
:1028F000863009F489C008F47CC08A30A0F78FEFD5
:1029000088832DC0803109F49FC0D8F48E3009F43B
:102910008AC008F480C08091040190910501892B40
:10292000F1F06B8170E06D317105C8F489819A8195
:10293000AE014C5F5F4F9827892798270E94B11BF3
:102940000EC0823109F486C008F481C0833109F4D5
:1029500092C08E3F41F6B3CF198289E08A83602FFF
:10296000CE010E94992ECDB7DEB7E6E00C94BC35BF
:102970008981823071F0833079F0813009F0B3CFF2
:102980000E94DB2D0E948D356A837B838C839D831F
:10299000E6CF0E94D813F6CF8091040190910501F3
:1029A000892BE9F27E0182E0E80EF11C10E0812F14
:1029B0000E945A12F70181937F011F5F1730B9F708
:1029C000CECF8981823009F08ECF6A817B818C8164
:1029D0009D810E948D350E94E213C1CF4B816A8197
:1029E00089810E94C3199827892798279D838C8302
:1029F000B6CF2C813D813227232732274B816A8134
:102A000089810E94E519ABCF0E948B1AA8CF0E9442
:102A1000871B8983A4CF0E94891B98278927982721
:102A20009A8389839CCF6B8170E06D31710508F0CA
:102A300096CF89819A81AE014C5F5F4F9827892795
:102A400098270E948C1B8BCF0E94D61B88CF0E9498
:102A5000B119DFCF6B8170E06D31710508F07FCF68
:102A600089819A81AE014C5F5F4F9827892798270B
:102A70000E94181B74CF6B8170E06D31710508F0F6
:102A80006ECF89819A81AE014C5F5F4F982789276D
:102A900098270E943C1B63CF81152CE5920741F4D7
:102AA0002091040130910501232B11F490E080E086
:102AB0000895E9ECF2E090E080E067E179E143EA33
:102AC00058E120E338E17783668351874087338775
:102AD00022879587848701963E968830910599F7DD
:102AE0000895CF92DF92EF92FF921F93CF93DF93DF
:102AF000CDB7DEB72A970FB6F894DEBF0FBECDBFB5
:102B0000E0E4F4E080E5DF011D928A95E9F7E1E970
:102B1000F2E088E3DF011D928A95E9F780E4C82E90
:102B200084E0D82E7F0110E0F701D182C082BE017F
:102B30006F5F7F4F812F0E943B1A892B79F488E0C9
:102B4000FE013196D60101900D928A95E1F78985B3
:102B50009A85D70113969C938E931297BAE0CB0E69
:102B6000D11CE7E0EE0EF11C1F5F1830E9F62A9643
:102B70000FB6F894DEBF0FBECDBFDF91CF911F918E
:102B8000FF90EF90DF90CF900895AAE0B0E0EBECDB
:102B9000F5E10C949B3508E112E086E0C82E82E056
:102BA000D82EF12C97E0E92E9924939420E9A22EB7
:102BB00022E0B22ED6010D931D936D01BE016F5F11
:102BC0007F4F8F2D0E94631A892B09F056C0F801A0
:102BD0003896DF018E2D1D928A95E9F789819A81B9
:102BE000D80111969C938E938F8112968C93129795
:102BF0008D8113968C931397888514968C931497D4
:102C0000898515968C9315978B819C8117969C933B
:102C10008E93169718961C9218978A8587FF37C04F
:102C20001E961C921E921D9780FF03C0D801189615
:102C30009C9281FF04C0F80190859260908782FF8A
:102C400007C0D80118969C911897946018969C9389
:102C500083FF04C0F80190859860908784FF07C0C7
:102C6000D80118969C911897906118969C9385FFAF
:102C700004C0F801808580628087015F1F4FF39454
:102C8000F8E0FF1297CF2A96EBE00C94B735F801E5
:102C9000B686A586C9CF0E9459150E9471150E945B
:102CA000C5150895CF92DF92FF920F931F93CF9394
:102CB000DF93CDB7DEB72A970FB6F894DEBF0FBE0D
:102CC000CDBF8C01603269F5DC011196EC91119752
:102CD000EE3038F5F0E0E75AF94C0C94873588E08F
:102CE000EAE1F1E0DE01119601900D928A95E1F79B
:102CF00080E2F80111928A95E9F785E0D8018C937A
:102D000011961C92119712961C92129713961C9270
:102D1000139788E0FE013196149601900D928A95E2
:102D2000E1F72A960FB6F894DEBF0FBECDBFDF9154
:102D3000CF911F910F91FF90DF90CF9008958CE578
:102D4000F801808381E0818312821382EACF139697
:102D50008C911397682F70E0762F662712968C91CE
:102D6000860F972F911D092E000CAA0BBB0B55E067
:102D7000880F991FAA1FBB1F5A95D1F7AC01BD013F
:102D8000405E5F4F6F4F7F4F481759076A077B07B9
:102D900040F28C35E1E09E07A105B10510F64D35F6
:102DA000F1E05F076105710520F04CE551E060E05E
:102DB00070E0481B590BBC0160507F4FC8010E9456
:102DC000CB35AFCF40E250E06FEF70E00E94EA35C4
:102DD00080910401D8018C9380914D0311968C93BE
:102DE000A0CF81E090E090934E0380934D0382E367
:102DF00090E090934C0380934B030E94CF2D91CF92
:102E000080910401F801808380914D03818380913A
:102E10004B03828386CF40E250E0BC0112968D9135
:102E20009C910E943A1E7DCFBC016F5F7F4F4FE1A6
:102E300050E0FC01828193810E946A1ED8018C932C
:102E400070CFBC016C5F7F4F4CE150E0FC01828190
:102E500093810E94851EF2CF0E94061E62CF1296B9
:102E6000EC911297E73008F05CCFF0E0E959F94CAB
:102E70000C94873580E2F80111928A95E9F788E091
:102E80008C9311968C93119712968C934ACFFC01D8
:102E900083813AE0F32E9E012F5F3F4F6901D901F4
:102EA000EF2D1D92EA95E9F7B9010E94131AD80196
:102EB0008D93F60101900D92FA94E1F732CF1396BB
:102EC000FC908AE0F8013496DE01119601900D9293
:102ED0008A95E1F789819A810E944C159A838983AA
:102EE0008B819C810E944C159C838B838D819E815C
:102EF0000E944C159E838D838F8198850E944C156E
:102F000098878F83BE016F5F7F4F8F2D0E94271A96
:102F1000F80180830E94591504CF13968C912AE002
:102F2000F22EFE0131966F01DF01EF2D1D92EA9521
:102F3000E9F7B6010E943B1ABACF1396FC908AE0DB
:102F4000F8013496DE01119601900D928A95E1F711
:102F500089859A850E944C159A878987BE016F5F83
:102F60007F4F8F2D0E944F1AF80180830E947115A8
:102F7000D8CE13968C919AE0F92EFE0131966F010E
:102F8000DF01EF2D1D92EA95E9F7B6010E94631A61
:102F90008ECF1396FC908AE0F8013496DE011196EC
:102FA00001900D928A95E1F78B819C810E944C15CE
:102FB0009C838B83BE016F5F7F4F8F2D0E94771A9A
:102FC000F80180830E94C515ACCEA5E0B0E0EBEE21
:102FD000F7E10C94A43590939104809390048115AB
:102FE00020E2920730F40E94CD022596E2E00C9494
:102FF000C03580EF89838A8381E08B830E94CF2D47
:103000008160782F9D838C8349815A816B818D816A
:103010000E946304EACFA5E0B0E0E1E1F8E10C949E
:10302000A4359093910480939004811520E2920737
:1030300030F40E94E3022596E2E00C94C03580EF64
:1030400089838A831B820E94CF2D8160782F9D8384
:103050008C8349815A816B818D810E946304EBCFFF
:103060000F931F93CF93DF938C01EB0169E373E020
:103070008C2F0E94131A892BA1F48091B004909197
:10308000B104019798F4DD27CD5BDC4F8881F8010E
:1030900012821882833029F180F4813091F08230DD
:1030A000B9F0DF91CF911F910F910895EFE9FFE003
:1030B0003197F1F700C00000E4CF8430B9F08530DB
:1030C00081F78091390390913A03009751F306C03C
:1030D00080913B0390913C03009799F30E940B1859
:1030E000E0CF80913D0390913E03F6CF80913F0366
:1030F00090914003009791F72091390330913A0362
:1031000080913B0390913C0321153105F1F200972A
:1031100029F7C901E3CFCF93DF93EC010E94E517B4
:103120008091B0049091B104019730F4CE010E94D7
:103130000B18DF91CF910895EFE9FFE03197F1F798
:1031400000C00000F1CF0F931F93CF93DF938C014A
:10315000EB0169E373E08C2F0E94131A892B09F0AD
:103160005CC0FE01FF27D80112968C911297ED5B8F
:10317000FC4F8130B9F415969C9192FF02C0808378
:103180000AC090FFFCCF82E0808380913B03909146
:103190003C030097B9F48091390390913A0300976A
:1031A000E1F110C08230B9F515968C9182FD28C0EE
:1031B00080FD0BC083E0808380913D0390913E03AE
:1031C000009701F10E94E51728C084E08083809178
:1031D0003F03909140030097A9F7809139039091A4
:1031E0003A030097F9F00E948B1880913B0390916D
:1031F0003C03009739F78091390390913A03E2CF6D
:1032000085E080838091390390913A03009729F0FB
:103210000E948B18F0CF86E08083DF91CF911F91C1
:103220000F91089580913B0390913C03B8CF0F9389
:103230001F93CF93DF938C01862F69E373E00E9485
:10324000131A892BB1F4C0913903D0913A03209716
:1032500081F0F8018281833051F4CE010E948B18F5
:10326000CE010E948B18CE010E948B1802C08430C0
:10327000D0F7DF91CF911F910F910895AAE0B0E0B0
:10328000E4E4F9E10C94A0358C017B0197558F3F64
:10329000910509F070F4BE016F5F7F4F802F0E948F
:1032A000131A892B31F489859A852A96E6E00C94C5
:1032B000BC35B701C8010E94B41EF7CFCF93DF938E
:1032C000FB012281211130C0EC01D755CF3FD10540
:1032D00009F050F569E373E08C2F0E94131A892BD3
:1032E00019F58EE08C9FF0018D9FF00D1124E753AE
:1032F000FD4F82818130E1F48091390390913A034E
:10330000892B91F080913B0390913C03892B61F0D4
:1033100080913D0390913E0320913F033091400303
:10332000822B932B892B61F081E0DF91CF9108955F
:103330008230D1F780913D0390913E03892BA1F318
:103340002EE02C9FC0012D9F900D1124FC01E25313
:10335000FD4F20812E7F208387539D4F0E94322B6B
:10336000E3CF84E0089550E0440F551F9CE0699F2F
:10337000400D511D112494E5899F400D511D1124CC
:10338000CA01879608950F931F93CF93DF938430DC
:10339000C8F46730B8F44630A8F40E94B3198C0121
:1033A0000E940136C82FD0E0DC2FCC27C80101963F
:1033B0000E9401369E01282BC901DF91CF911F91F8
:1033C0000F91089590E080E0F8CF0F931F93CF9373
:1033D000DF93122F032F843078F4673068F446307F
:1033E00058F40E94B319EC01602F0E940F36612F30
:1033F000CE0101960E940F36DF91CF911F910F9160
:1034000008958432910528F489589E4F0E94013610
:10341000089580E008958432910520F489589E4FE4
:103420000E940F3608959B01883070F49AE0899FBE
:10343000B001112465567E4F4AE050E0C9010E9458
:10344000F13590E080E008958FEF9FEF08959B01A4
:10345000883070F49AE0899FB001112465567E4F40
:103460004AE050E0C9010E94333690E080E00895C0
:103470008FEF9FEF08959B01883070F49AE0899F49
:10348000B001112465517E4F4AE050E0C9010E940D
:10349000F13590E080E008958FEF9FEF08959B0154
:1034A000883070F49AE0899FB001112465517E4FF5
:1034B0004AE050E0C9010E94333690E080E0089570
:1034C0008FEF9FEF08959B01883070F49AE0899FF9
:1034D000B0011124655C7D4F4AE050E0C9010E94B3
:1034E000F13590E080E008958FEF9FEF08959B0104
:1034F000883070F49AE0899FB0011124655C7D4F9B
:103500004AE050E0C9010E94333690E080E008951F
:103510008FEF9FEF0895AEE1B0E0E1E9FAE10C949E
:103520009935809004019090050181E090E090939E
:103530000501809304019CEAA92E90E0B92E10E0C9
:1035400000E06501712C22C00E94900221E030E071
:103550008017110641F03CF0F701EE0FFF1FEC0D54
:10356000FD1D259134914E2D672D802F0E94E51968
:103570008FEFE81AF80A96E0E916F10429F7ECE073
:10358000CE0ED11C7394F7E07F1619F0F12CE12CCC
:10359000DBCF0F5F1F4F84E5A80EB11C043011056F
:1035A00081F60E94061E1E8A1D8A188E1F8A1A8E98
:1035B000198E1C8E1B8E88EC90E09E8F8D8F10E0F4
:1035C000BE016B5E7F4F812F0E94271A1F5F18304C
:1035D000B9F77E019BE0E90EF11C8AE0F701119238
:1035E0008A95E9F710E0B701812F0E944F1A1F5FFB
:1035F0001830C9F7CE0101967C018AE0F7011192DB
:103600008A95E9F78FEF9FEF9E838D8387E08A8706
:1036100010E0B701812F0E94771A1F5F1830C9F799
:1036200090920501809204016E96EDE00C94B53500
:10363000EF92FF920F931F93CF93DF93EC018A01D8
:103640007C01E60EF71ECE018796CE15DF0529F424
:10365000CDB7DEB7E6E00C94BC35C03521E0D2072B
:1036600040F40E940136F80180830F5F1F4F2196BE
:10367000EACFF8011082F9CFB0E0A0E0E2E4FBE18C
:103680000C949E358C016A018035914080F480E570
:1036900091E0801B910B8617970748F07801E60EA2
:1036A000F71EE801CE018796CE15DF0529F4CDB7C8
:1036B000DEB7E8E00C94BA35C03521E0D20740F41B
:1036C000FE01E01BF10BEC0DFD1D60810E940F3629
:1036D0002196E8CF462F20914D0330914E03232BA6
:1036E00099F4703F39F4603F79F48091900490919F
:1036F00091040895843040F4773030F4663020F43B
:10370000672F0E94C319089590E080E0089580E13A
:10371000089585E791E00895EF92FF920F931F932C
:10372000CF93DF93EC018A017C01E60EF71ECE01F8
:1037300085579D4FCE15DF0529F4CDB7DEB7E6E0FE
:103740000C94BC35C53721E0D20740F40E94013605
:10375000F80180830F5F1F4F2196E9CFF801108297
:10376000F9CFB0E0A0E0E7EBFBE10C949E357C01E3
:103770006A018C01060F171FEC01CE0185579D4F82
:10378000C017D10729F4CDB7DEB7E8E00C94BA35FD
:10379000C53721E0D20740F4FE01EE19FF09EC0D18
:1037A000FD1D60810E940F362196E7CFCF93DF93F6
:1037B000CBE8D2E060E0CE010E940F362196C11521
:1037C00084E0D807B9F7DF91CF910895A4E0B0E085
:1037D000ECEEFBE10C949D35F82E2FE0281708F451
:1037E000A5C08FEF93E00E94013681119FC00BE8C6
:1037F00012E0F11036C019821A821B821C82BB248F
:10380000BA9478015FEFE51AF50AC8010E94013603
:1038100089831A82882309F489C0813009F07FC026
:10382000680182E0C80ED11CC7010E940136E82E53
:103830008A83882309F47AC0C6010E940136F82ED3
:103840008FEF8E0D8330D8F46801E3E0CE0ED11CEB
:10385000FB82FF2021F0CE0101960E9439218601D2
:10386000D0CF011544E0140709F460C0C8010E94DC
:103870000136811101C0FA940F5F1F4FBACF8BEF51
:103880008E0D833030F5C8010396FB826C01FF205A
:1038900031F36801F4E0CF0ED11C0E9401368C8315
:1038A0008823E9F28B819C8181302FEF920710F001
:1038B000982F882746E0E41631F057E0E51631F0FE
:1038C0000E948B18CCCF0E94E517C9CF0E940B181D
:1038D000C6CF84E0E812C3CF6801E4E0CE0ED11C6D
:1038E000C80103960E940136FF2001F18823F1F000
:1038F0008150990BB89E9001B99E300D11244F2D27
:103900004150550BCA01820F931F019708F4A7CFAE
:10391000EFE9FFE03197F1F700C00000F6CF60E07B
:10392000CE0101960E94D320670199CF2496E9E049
:103930000C94B935B0E0A0E0E0EAFCE10C949C35D1
:103940008FEF9FEF4430510508F469C04091300477
:1039500041FB882780F990E0880F991F42FB0027E0
:1039600000F910E0000F111F000F111F802B912B89
:1039700040FBCC24C0F8D12C8C299D2943FB222765
:1039800020F9C22FE0E0DE2F53E0CC0FDD1F5A9567
:10399000E1F78C2B9D2B44FBAA27A0F9B0E0E4E0D3
:1039A000AA0FBB1FEA95E1F78A2B9B2B45FBEE275D
:1039B000E0F9F0E0A5E0EE0FFF1FAA95E1F78E2BEE
:1039C0009F2B46FB222720F930E0B6E0220F331F61
:1039D000BA95E1F7822B932B47FB222720F930E0A1
:1039E0003695322F222737952795822B932B2091BE
:1039F0003104322F3170F32EE82EF92A26952170EA
:103A0000B22EBB0CA82EBF28C501BB0CAA0BBB0B4A
:103A1000FB0180839183A283B38390E080E0CDB7E4
:103A2000DEB7EAE00C94B835CF92DF92EF92FF92C6
:103A30008FEF9FEF4430510508F46AC0FB01C0804E
:103A4000D180E280F3800E946B0580913004C0FA3F
:103A500080F9B701A601769567955795479540FB84
:103A600081F9B701A60122E07695679557954795AC
:103A70002A95D1F740FB82F9B701A60133E076958C
:103A80006795579547953A95D1F740FB83F9B7016C
:103A9000A601E4E07695679557954795EA95D1F7A5
:103AA00040FB84F9B701A601F5E076956795579537
:103AB0004795FA95D1F740FB85F9B701A601A6E035
:103AC0007695679557954795AA95D1F740FB86F966
:103AD000B701A601B7E07695679557954795BA95D2
:103AE000D1F740FB87F98093300480913104D0FAFC
:103AF00080F9D1FACC24C0F8C0FA81F9809331045E
:103B000080913004909131040E94010F90E080E098
:103B1000FF90EF90DF90CF90089580919204909164
:103B200093040E949C220895DB01FC0132962591AA
:103B300034914217530758F0FC0134966591749103
:103B4000A901CD010E94E13590E080E008958FEF5A
:103B50009FEF08950F931F93CF93DF9302E914E033
:103B6000D0E0C0E0CE010E94011AF80161918F01FE
:103B7000861719F0CE010E940B1A2196C432D10586
:103B800089F7DF91CF911F910F910895DA019C0180
:103B90002E5F3F4FF90145915491F90125913491E0
:103BA000A217B30758F0FC013496859194910E94B6
:103BB000E1350E94AA1D90E080E008958FEF9FEF0D
:103BC00008950F931F93CF93DF9302E914E0D0E0A1
:103BD000C0E0CE010E94011AF80181938F01219665
:103BE000C432D105B1F7C6E6D2E0FE0185919491C9
:103BF000009711F0FC0109952C96F2E0C63FDF0713
:103C0000A1F7DF91CF911F910F910895E2E9F4E0C0
:103C1000128E138E8FEA90E09183808385E0848FEB
:103C200028E833E13383228322E330E0378B268B8D
:103C300028EC30E0318F208F158E178E168E20E500
:103C400030E031A320A382A30E94AA1D0E946B052D
:103C50001092310410923004E1E3F4E0808184603A
:103C6000808380913004909131040E94010F0E9462
:103C7000E11D0895EF92FF920F931F93CF93DF936F
:103C80007C01EB018A016FEF70E0CE010E94EA3502
:103C90002CE532E0ACEEB2E090E080E0AC014E5FAB
:103CA0005F4F0417150788F0F90165917491E616C6
:103CB000F70630F48C0F9D1FFC0171836083CA01ED
:103CC000245F3F4FA217B30749F7CDB7DEB7E6E051
:103CD0000C94BC359C018CE592E0FC01A591B4915B
:103CE0002A173B0741F00C96E2E08C3E9E07A9F7AD
:103CF0008FEF9FEF0895FC013696259134912115A1
:103D00003105B1F3F901099508950F931F93CF93EE
:103D1000DF93CCE5D2E0FE01259134918217930721
:103D200041F02C9622E0CC3ED207A9F70FEF1FEF0F
:103D300015C0FE0138962591349121153105B1F356
:103D4000CE01F90109958C01892B41F4FE013A96C7
:103D500085919491009711F0FC010995C801DF91BC
:103D6000CF911F910F9108958091AA049091AB0477
:103D700008958091AF04817008958091AF04869575
:103D8000817008958091AF0482FB882780F908959F
:103D90008091AF0483FB882780F908958091A8045F
:103DA0009091A90408958832910538F48E319105D7
:103DB000E8F40497A0F480E008958933910558F45D
:103DC0008D32910510F48B97B1F78091AD0482FB91
:103DD000882780F908C084369105B9F3ECCF80912B
:103DE000AD048295817091E0892708958091AD049A
:103DF00083FB882780F9F7CF8091AD0485FB882766
:103E000080F908958091AD0486FB882780F9089594
:103E1000CF93DF93EC01FB018281882309F464C115
:103E2000C330FDE5DF07E0F5CA3F9CE5D90730F474
:103E30009E0122503C4524313105D8F50E94F30EF5
:103E40009093310480933004C231ECE5DE0709F42D
:103E50001FC108F06EC0C9308CE5D80709F4F2C064
:103E600008F03FC0C530ECE5DE0709F4DBC058F5CB
:103E7000C3308CE5D80709F4CDC008F0CFC08091DD
:103E800030048160C230DC4509F4AEC0809130045A
:103E9000909131040E94010F0E946B0580E009C0DF
:103EA000C53AEDE5DE0751F238F4C1369DE5D90794
:103EB00029F2DF91CF9108959E012D5A3D4523307F
:103EC0003105B8F7BBCF809130048062C730FCE584
:103ED000DF0709F489C008F4B1C080913004806420
:103EE00083C0CD309CE5D90709F4BAC070F4809145
:103EF00030048E7FCB30FCE5DF0709F475C008F491
:103F0000A7C0809130048D7F6FC0CF309CE5D9076A
:103F100009F4B6C008F4A8C0C031FCE5DF0709F415
:103F2000B3C0C131DC4509F0B1CF809130048F7B43
:103F30005BC0CF3F9CE5D90709F4B4C098F5CA3FF0
:103F4000FCE5DF0709F472C0B8F4C4319CE5D90779
:103F500009F4B6C008F4A2C0C531DC4509F096CF1B
:103F60008091300482FB992790F921E0922790FB01
:103F700082F990FB83F938C0CC3F8CE5D80709F46F
:103F800077C008F457C0CD3FECE5DE0709F474C0F4
:103F9000809131048360CE3FDC4509F077CF809378
:103FA000310474CFC1368DE5D80709F496C068F4A2
:103FB000C130EDE5DE0709F48CC008F477C0C230EB
:103FC000DD4509F063CF80E085C0CD3A9DE5D90796
:103FD000E9F068F490913004892F8E7F90FF816022
:103FE000C53ADD4509F052CF809330044FCFCE3A29
:103FF0008DE5D80789F1CF3ADD4509F047CF90919B
:104000003104892F877F93FF8860C9CF8091310465
:104010008860C5CF809130048260E6CF8091300403
:104020008460E2CF809130048860DECF80913104DB
:104030008160B5CF809131048260B1CF809130042E
:104040008061D2CF0E946B05809130048068CCCF14
:10405000809130048C60C8CF80913104877F9FCFDE
:10406000809130048B7FC0CF80913004877FBCCF9C
:10407000809131048E7F93CF809131048D7F8FCFDB
:10408000809130048F7EB0CF809130048F7DACCF93
:104090000E946B05809130048F77A6CF8091300409
:1040A000837FA2CF809131048C7F79CF80913104BE
:1040B000982F909591708E7F892B90FB81F96FCF0F
:1040C0000E946B0590913004892F97FB87F98058E7
:1040D0008BCF81E00E948D0FD9CE90913004892F33
:1040E0008F7E94FF806180CF81E0E3CEB0E0A0E0DE
:1040F000ECE7F0E20C949F35E82FF0E0E451FD4F3F
:10410000D490282F26952695269530E0F901E4577E
:10411000FC4F0491877010E0082E02C0159507959A
:104120000A94E2F701701127F901E458FC4FE4907A
:10413000F12C082E02C0F594E7940A94E2F791E07E
:10414000E922FF24F901E459FC4FC491D0E002C0F8
:10415000D595C7958A95E2F7C170DD270115110540
:1041600019F081EE0E94CC04E114F10419F086EEFE
:104170000E94CC048D2D0E943805E114F10419F041
:1041800086EE0E94F6040115110519F081EE0E94D9
:10419000F604CD2B19F08CE20E943805CDB7DEB7BE
:1041A000E7E00C94BB35EF92FF920F931F93CF93F0
:1041B000DF93EC01162F0AE08881882309F454C0AC
:1041C000813009F04EC08981813099F47E0122E06E
:1041D000E20EF11C8A810E943805E7012196812FA9
:1041E000815050F3EFE9FFE03197F1F700C0000094
:1041F000F7CF823041F47E0182E0E80EF11C8A8123
:104200000E94CC04EACF833041F47E01E2E0EE0E5E
:10421000F11C8A810E94F604E0CF843011F02196CF
:10422000DDCF2A81229690E080E0AE014F5F5F4FA4
:104230002053330B2A30310548F0019778F2EFE92B
:10424000FFE03197F1F700C00000F7CF089FB00101
:10425000099F700D1124C901860F971F2981EA015A
:10426000E4CF0E947620BACFCDB7DEB7E6E00C945B
:10427000BC3560E00E94D320089580910601877FBD
:104280008093060182E00E94B60D8091060184FFB2
:1042900006C08F7E8093060182E00E949D0D809172
:1042A000060185FF06C08F7D8093060180E20E9493
:1042B0009D0D0E94050E0895CF93DF93EC016623B8
:1042C00019F082E00E94B00DCE019056811520E2D7
:1042D000920720F0905E8115904108F4DD27CE0111
:1042E0000E94CD02DF91CF9108959C013056211597
:1042F00040E2340720F0305E2115304108F4992760
:104300000E94E3020895FC0123E0F695E7952A95C3
:10431000E1F7EE71FF27E15BFC4F20813181AC01B9
:104320004F70552781E090E002C0880F991F4A9591
:10433000E2F7662329F0822B932B918380830895E3
:104340008095909582239323F8CFFC0123E0F69586
:10435000E7952A95E1F7EE71FF27E15BFC4F8F703F
:10436000992721E030E002C0220F331F8A95E2F73F
:10437000808191812823392381E0232B09F480E077
:104380000895B0E0A0E0E7ECF1E20C949F35EC0179
:104390007B01D42E89018091060182FF83C0209188
:1043A0007703309178032C173D0719F0209709F017
:1043B00079C0909106019B7F9093060161E091FD89
:1043C00010C08091790390917A03A701481B590B83
:1043D00061E080910701909108014817590708F49E
:1043E00060E061708091060160FB81F980930601B5
:1043F000C9010E9483210E949A0D81FF08C080910B
:10440000060180618093060182E00E94A30D0E9454
:104410009A0D85FF08C08091060180628093060195
:1044200080E20E94A30D6091060166956170A8016B
:1044300080917703909178030E945C21D11014C081
:104440008091B0049091B104019728F56091060124
:1044500066956170A80180917703909178030E941E
:1044600075210E943D212DC0B80180917703909164
:1044700078030E94FC1E882319F3B801809177030A
:10448000909178030E94021F8111DACFCDB7DEB779
:10449000E7E00C94BB35EFE9FFE03197F1F700C09E
:1044A0000000D2CFCE010E94A521A801682FCE0125
:1044B0000E94752180917703909178038C179D0756
:1044C00081F2F0927A03E0927903E0CF8091AD041B
:1044D00080FF1EC08091060182FF1AC00E94CF2D6E
:1044E0002091790330917A03AC01421B530B209148
:1044F0000701309108014217530750F02FE633E0CF
:1045000041E0BC0180917703909178030E94C12122
:10451000089590910601892F8E7F90FF816080938E
:1045200006010E943D210895809106018E7F8093AF
:1045300006010E943D210895909308018093070190
:104540000895B0E0A0E0E7EAF2E20C949E35EC01B9
:104550007B018091AD0480FD07C011E0812FCDB7B4
:10456000DEB7E8E00C94BA350E94CF2D6C01F7015C
:104570008281882391F18091060182FF08C02FE695
:1045800033E040E0B60190E080E00E94C121CB31F1
:10459000FCE5DF07C9F0CC312CE5D207D9F0CA31F0
:1045A0008CE5D80711F40E948922CE01905681151E
:1045B000E0E29E0720F0905E81159041E0F41092B9
:1045C000780310927703C9CF8091060181608093B0
:1045D0000601EBCF0E949422E8CF809106018F7EE6
:1045E000C13ED10531F0C53ED105B9F58091060136
:1045F0008F7D809306018091060180FFAECFB701C9
:10460000CE010E94D31EF7011281882309F4C8C08D
:10461000112309F4BEC00E949A0D182F0E94CC0DE0
:10462000812B8D7FB9F110927803109277038091DE
:10463000AD0481FD2FC060E0CE010E948321A7015F
:1046400060E0CE010E945C210E94CC0D8D7F0E9413
:10465000E00D82E00E94930E72C0CE01905681154B
:1046600020E2920720F0905E8115904120F6809123
:10467000060182FF72CFB701CE010E94BD1E8111DB
:104680006CCF2FE633E040E0B60190E080E00E947E
:10469000C12163CF88E0F701AFE6B3E001900D924E
:1046A0008A95E1F7109271031092730310927203CE
:1046B0008091770390917803C817D90709F04AC011
:1046C000B701CE010E94FC1E882309F443C08091EB
:1046D000060181FD36C08091790390917A038601AD
:1046E000081B190BB70180917703909178030E9402
:1046F0003E190817190770F50E949A0D81FF08C02E
:104700008091060180618093060182E00E94A30DE2
:104710000E949A0D85FF08C08091060180628093F7
:10472000060180E20E94A30D60910601669561700A
:10473000A70180917703909178030E945C2110E09B
:104740000DCFB70180917703909178030E94021FEB
:104750008111C1CF0E949A0D182F0E94CC0D812B80
:104760009091060181FB91F9909306010E94CC0D76
:104770008D7F0E94E00DD0937803C0937703D09291
:104780007A03C092790380910601846080930601C8
:1047900060CF970140E0B601CE010E94C121DECE7C
:1047A00011110DCFDACE08950F931F93CF93DF939E
:1047B0008091E603E0917B031CE081111AC0DF9138
:1047C000CF911F910F91089501E00E0F00937B038D
:1047D000CE2FD0E0E19FF0011124EA57FC4F8381F6
:1047E0009481892B29F08081918189238F3FF9F46D
:1047F000E02F8091E603E81738F31092E603109259
:104800007B03DDCF18968D919C918F3F9807E1F047
:1048100061E00E94D3231C9FF0011D9FF00D112425
:10482000EA57FC4F148213820E94BD0DE1CF1C9FFA
:10483000D0011D9FB00D1124AA57BC4F16968D9123
:104840009C911797892BF1F220813181428153810C
:1048500064817581868197810E94A40CDCCF1092BF
:10486000E8031092E70320910A0130910B01E1E97E
:10487000F2E090E080E02817390709F408954581B7
:10488000411102C01482168201963796F4CFDC01E2
:104890006091840380918503962F891301C0089548
:1048A000292F30E0F901EE0FFF1FE458FC4F408143
:1048B00051814A175B07A1F487E08A9FA0018B9F73
:1048C000500D11244F565D4F81E0FA0184839613F9
:1048D000E6CF2F5F3F4F2370332720938403089543
:1048E0002F5F3F4F922F9370D8CF6F927F929F92FE
:1048F000AF92BF92CF92DF92EF92FF920F931F93EE
:10490000CF93DF93DB0114962C911497211156C09D
:10491000A090E603E6E8F3E030E020E0B12C662466
:104920006394712C2A1508F047C0C284D384ED909B
:10493000FC9011976FEF7FEF912C492D50E08A0189
:10494000000F111F0E0D1F1DE801088119810115AF
:10495000110531F0C016D10609F4BA019394EDCFD8
:104960006F3F7607D9F1E30102C0CC0FDD1F6A95D6
:10497000E2F7BC2AB30102C0660F771F9A94E2F7F0
:10498000AB0141505109B416150631F512964D91FF
:104990005C9113976CE0629FF001639FF00D11240E
:1049A000EA57FC4F578346832EEF2083218391875C
:1049B000808721E015962C930E944724DF91CF91A8
:1049C0001F910F91FF90EF90DF90CF90BF90AF902D
:1049D0009F907F906F900895148213822F5F3F4FB6
:1049E0003C96A0CF1F93CF93DF93C091840317E031
:1049F000809185038C1308C00E94D4230E942F2429
:104A0000DF91CF911F910895D0E0FE01EE0FFF1FBF
:104A1000E458FC4F80819181189FB001199F700D5F
:104A200011246F567D4F0E9475242196C370E0CFEC
:104A30000F931F93CF93DF93DC012D913C9111973E
:104A400040E090E080E0E82FF0E0EE0FFF1FE20F83
:104A5000F31FC081D1812097B9F0FB010081118142
:104A600090E005C0CE17DF0709F441E09F5FE92F12
:104A7000F0E0EE0FFF1FE00FF11F0190F081E02D3D
:104A8000309781F78F5FDFCF442349F0981708F400
:104A9000DB01CD01DF91CF911F910F910895B0E01F
:104AA000A0E0F7CF80910901882341F18091E903CB
:104AB0009091EA03009711F10E94E72D2091E703FE
:104AC0003091E80328173907C8F490918403809146
:104AD0008503981759F00E94F2241092E80310926F
:104AE000E7031092EA031092E90308950E94D42389
:104AF0001092EA031092E9030E942F240895109265
:104B0000EA031092E90310920901809185038093D2
:104B100084030E942F240E94D423089580910901C8
:104B2000882319F00E947F25089581E08093090170
:104B30000895AAE0B0E0EFE9F5E20C9494356C0139
:104B40002B01FB011281873FFCE59F0751F41123E4
:104B500079F081E080930901812F2A96E2E10C949B
:104B6000B035883F2CE5920709F04DC0111148C0BF
:104B700001E912E0F12CE12C1986AA24A394B12CAE
:104B800080910A0190910B01E816F90608F445C0DE
:104B9000F2018281882309F46AC1F985FF2309F4AF
:104BA00066C10E94CF2D9093EA038093E903809120
:104BB000E603883008F591E0980F9093E60398E0BB
:104BC000F201DE01119601900D929A95E1F72CE029
:104BD000829FC00111248A579C4F28E0FE01319624
:104BE000DC0101900D922A95E1F72FEF3FEFFC01D8
:104BF00031872087D386C28611E0F9851F27ACCF85
:104C00000E947F25A9CF893F9C4509F0B1CF112390
:104C100009F4AECF0E948E259FCFF801208131810B
:104C200066246A94762C212C822D90E0FC01EE0FF4
:104C3000FF1FE20FF31F408151814115510531F0F3
:104C4000C416D50609F43C012394EECF312CFFEFB6
:104C50006F167F0609F44AC0F801448130900901BB
:104C6000832D411180E0F82FF1703F2EF2018281F7
:104C7000882309F498C0332009F495C0B801C7010E
:104C80000E94CE1E4C01F8018581811114C095014E
:104C9000062C01C0220F0A94EAF78681822B8683B4
:104CA0008091E7039091E8038815990520F490928C
:104CB000E8038092E703C501022C02C0880F991F08
:104CC0000A94E2F70197F80126812817190671F472
:104CD0008091E9039091EA03009789F00E94E72D03
:104CE0008816990660F421E0F8012483F985F329F8
:104CF000F9872FEFE21AF20A095F1F4F41CF209088
:104D00008403309185033A8790E080E0EA852E1293
:104D100015C08017910751F3822C912CF401EE0FEE
:104D2000FF1FE458FC4FF182E082FFEF8F1A9F0AC9
:104D300023E08222992480928503D8CF822C912C63
:104D4000F401EE0FFF1FE458FC4F2081318147E052
:104D5000429FC001439F900D1124FC01EF56FD4F6F
:104D60003F01B801CF010E9418250097A9F021E06A
:104D7000FC0124838017910709F4B8CF20918403A4
:104D800022120AC06816790639F494012F5F3F4F4A
:104D900023703327209384033FEF831A930A482D0F
:104DA0004370242EB3CFF8019580868190E0911056
:104DB00020C09501022C02C0220F331F0A94E2F793
:104DC000215031092817390731F4442309F44DC023
:104DD000C7010E944724C501062C01C0880F0A9410
:104DE000EAF7982F9095F801868189238683392CDC
:104DF0007DCF9C01062C02C0359527950A94E2F7D9
:104E0000A90141705527BC01615071098623972380
:104E1000892B39F5452B29F182819381892BE1F08A
:104E20001B821C821D821E82FEEFF983FA830E9480
:104E3000CF2D8160582F9D838C83F80182819381CF
:104E40008F83988729813A814B816D817E810E9471
:104E5000A40CF8011582BFCF60E0C7010E94D323E4
:104E6000F8CFF22FF1709F2EB6CF932CB4CF909144
:104E7000840380918503981719F00E94F224BCCE18
:104E80000E94D4231092EA031092E9030E942F2477
:104E9000B3CECF93DF93EB0186319C4509F03BC045
:104EA0000E949A0D982F9A7A2091AC0420FF04C09A
:104EB000382F347409F090E021FF04C0382F31718D
:104EC00009F090E022FF04C0382F387809F090E014
:104ED00023FF03C0827209F090E08A81882389F061
:104EE00081E0911101C080E08093EB0389E2911190
:104EF00085E30E943B0D0E94050E80E0DF91CF917B
:104F000008958091EB03811104C089E20E94430D52
:104F1000F2CF85E3FBCF81E0F1CFFC0184818623D2
:104F200051F492819923B9F06923808583FF05C0EC
:104F300081E061110FC080E00895892F8F709295F4
:104F40009F70982B862F8F7062956F70682B81E011
:104F50009613F1CF089581E0FDCFCF93DF93EC015D
:104F60006091F6037091F7038091F8039091F90333
:104F70000E94F62D643F71408105910518F58091DE
:104F8000F6039091F703A091F803B091F903809391
:104F9000F2039093F303A093F403B093F50384EF2B
:104FA00091E0A0E0B0E08093EE039093EF03A09334
:104FB000F003B093F103D093ED03C093EC03DF91C2
:104FC000CF9108950E94DB2D6093F2037093F30359
:104FD0008093F4039093F50382E390E0A0E0B0E0C7
:104FE000E2CFFF920F931F93CF93DF93F82E0091A0
:104FF000FD031091FE030115110509F44DC0109237
:10500000ED031092EC030E94C90D0E94C30D0091A4
:10501000FD031091FE03D8011696CD91DC919E01FF
:105020003A9521153F4108F4D07ED1E0C11101C06D
:10503000D0E0D8011996ED91FC911A97309731F094
:105040001B966D917C9180E00995D823DD2339F082
:105050008CEF8C0F813A30F58C2F0E94430DFF208E
:1050600099F0E091FD03F091FE03808584FD0CC072
:105070008091FC03882341F0808191819C01215023
:105080003109203B3D45A0F00E94050E1092FE0321
:105090001092FD031092FC03C801CDB7DEB7E5E026
:1050A0000C94BD350E94050E8C2F0E94F604D7CFBC
:1050B0000E94AD27E9CF10920C0180E00E94F127F9
:1050C000089580910C01882319F00E945B280895AF
:1050D00081E080930C0108950F931F938091EC035E
:1050E0009091ED03892B89F16091F2037091F303A4
:1050F0008091F4039091F5030E94F62D0091EE0348
:105100001091EF032091F0033091F10360177107C4
:1051100082079307D0F08091EC039091ED030E94F9
:10512000CD021092ED031092EC031092F203109254
:10513000F3031092F4031092F5031092EE03109211
:10514000EF031092F0031092F1031F910F91089555
:10515000A4E0B0E0EEEAF8E20C9494358C017A8396
:105160006983DB0112965C905520B1F08F35BDE567
:105170009B0759F08036EDE59E0759F08E359D4529
:1051800059F40E946128312C0DC081E080930C01FC
:10519000FACF0E945B28F7CF30900C01311007C086
:1051A00033243394832D2496E2E10C94B0356801C6
:1051B00020EEC21AD1080E949A0DF82E0E94520DBC
:1051C000482E0E94CC0D482A4F2838E0C316D1043F
:1051D00008F094C098012770332781E090E001C067
:1051E000880F2A95EAF7552009F485C0482AA98135
:1051F000BA818D919C910E942F098090020190901C
:1052000003018114910409F4E1C021E030E0390187
:1052100002C0660C771C8A95E2F7E091FD03F091DD
:10522000FE03FA83E983A090FA03B090FB03212CDC
:10523000E22DF0E0EE0FFF1FE80DF91D2081318116
:105240003C832B832115310509F4C0C0411005C0F2
:10525000D90112968C9181118BC0EB81FC818381E5
:1052600090E086219721892B09F482C08085982FB0
:10527000977009F487E0F8E0CF16D10408F058C021
:10528000552009F451C086958170882309F470C0B7
:10529000AB81BC81ED90FC900E151F0519F45520D3
:1052A00009F466C0EB81FC8129813A81E217F3079A
:1052B00009F45EC00584F685E02D309721F08081E9
:1052C000882309F455C0642D8B819C810E948D2711
:1052D000882309F44DC00E151F0509F08BC0011578
:1052E000110509F48CC051108CC0EA14FB0409F0BC
:1052F0003FC0512C86C08095482279CF552009F4B3
:105300004EC01093FB030093FA030E94DB2D6093C1
:10531000F6037093F7038093F8039093F9031092C8
:10532000ED031092EC0363CF82FB882780F9ADCFA9
:105330005520F1F08170A9CF0E94F60483C0049734
:10534000813A910548F4802F0E943B0D552009F4C5
:1053500027CF0E94050E17CF0E94050E8FE39CE910
:105360000197F1F700C00000802F0E94CC04EECF1F
:1053700023945ECFFC01208131812017310731F465
:10538000511007C01092FC0380E031C0552009F491
:1053900007CFDC0118968C9185FD02CFF5CF809167
:1053A000FA039091FB038017910781F41092FB039D
:1053B0001092FA031092F6031092F7031092F8037A
:1053C0001092F9031092ED031092EC038091FD030B
:1053D0009091FE03009709F4E3CEA8E0CA16D10429
:1053E00048F6642D0E948D278111DACE81E00E945B
:1053F000F127D8CEE114F10409F077CF512CF12C2C
:10540000E12C80E00E94F127EB81FC81F093FE0308
:10541000E093FD0381E08093FC0385810E94C60D2B
:10542000511010C0E114F10469F0AB81BC818D9181
:105430009C919C0124503109213A310508F07CCF20
:105440000E94430DEB81FC8106811781C8019A956A
:1054500081159F4108F4107EFF24F394C801019741
:10546000803B9D4508F0F12CAB81BC811996ED91F4
:10547000FC911A97309731F01B966D917C9181E0E9
:105480000995F822FF2081F0EB81FC8186819781CC
:105490000E9492020E94C00DC801F8E0CF16D1040C
:1054A00008F04DCF0E94AD270E94050E4FCFB0E00F
:1054B000A0E0EDE5FAE20C949C357C015B01C42F81
:1054C000D22FFC0182818823C9F0409301040E94FD
:1054D000CF2D909300048093FF0380E28C0F8830DF
:1054E00040F4C77081E001C0880FCA95EAF70E94B6
:1054F0004505CDB7DEB7EAE00C94B835109101044C
:10550000141338C08091FF03909100040E94E72D8E
:105510006C01B701C5010E943E19C816D90650F5A5
:10552000C0E2CD0F1D17C1F080E2810F883048F432
:10553000177081E0012E01C0880F0A94EAF70E94DB
:105540004C05C83048F481E09D2F977001C0880F4A
:105550009A95EAF70E944505802F0E943805C830C9
:1055600040F6D77081E001C0880FDA95EAF70E9413
:105570004C05BFCF80E28C0F883008F0BACFC770DF
:1055800081E001C0880FCA95EAF7F1CF0F939C0123
:10559000CB01233F4CE5340759F1A8F4283DFCE545
:1055A0003F0701F1293D4CE53407D1F1273D3C454A
:1055B00091F406E221EE41EE67ED7CE50E94572A68
:1055C00080E00F910895253FFCE53F07E9F0B0F03A
:1055D000263F3C45F9F0FC018281882339F1109285
:1055E0000104EFCF07E225EE45EE68ED7CE5E6CF5E
:1055F00006E221EE40EE63EF7CE5E0CF07E225EE28
:1056000044EE64EF7CE5DACF06E221EE42EE65EF90
:105610007CE5D4CF07E225EE46EE66EF7CE5CECF03
:1056200008E221E045EE69ED7CE5C8CF81E0C9CF15
:10563000CF93DF93EC01EA85FB85309719F06C85F9
:105640007D8509958B810E94B60D8C810E94A30DEA
:105650000E94050E86E0FE0111928A95E9F7DF911E
:10566000CF910895CF93DF93EC018D8181FD12C01E
:1056700082608D838B810E94B00D8C810E949D0D74
:105680000E94050EE885F985309721F06C857D85AF
:10569000CE01099510920504109204048D8180FDBD
:1056A00003C0CE010E94182BDF91CF910895FB011A
:1056B00022812223E1F0E0910404F0910504309767
:1056C000B1F0E817F90799F02EE0E29FF0011124FC
:1056D000DF01A253BD4F2C9124602C93E753FD4F63
:1056E00091838083CF010E94322B0E94BD0D0895CB
:1056F000EF92FF920F931F93CF93DF938C019755F7
:105700008F3F910511F008F041C07801FF248EE031
:10571000089FF0011124EF01C753DD4FDB01129602
:105720002C91E253FD4F808120FB80F9808322235E
:1057300099F10E94CF2D90930304809302048A81F3
:105740008F5F8A830E949A0D8B830E94AD0D9B818F
:10575000892B8B830E94CC0D8C83EE81FF81309747
:1057600021F06C857D85CE0109958EE08E9DF0013E
:105770008F9DF00D1124E753FD4F858181FF02C0FD
:1057800010E000E0109305040093040481E0CDB71D
:10579000DEB7E6E00C94BC358D8181FFF7CFCE01FA
:1057A0000E94182BF3CFA8E0B0E0E9EDFBE20C94E7
:1057B000A2358091040490910504892B41F18091D8
:1057C0000204909103040E94E72D8C01BE016F5FDB
:1057D0007F4F88E0FB0111928A95E9F780910404DC
:1057E000909105040E943E198017910780F48091E2
:1057F0000404FEE08F9FC0011124FC01E253FD4F21
:10580000208122FD04C087539D4F0E94322B289691
:10581000E4E00C94BE3590933F0180933E010895DF
:1058200090930B0480930A040895E0910A04F09188
:105830000B04309729F00190F081E02D099508952F
:1058400080E00895E0910A04F0910B04309799F0FC
:1058500020911901222359F02091300427FF07C01D
:10586000DC012C9111962C93119726E02C93028049
:10587000F381E02D099508952091080430910904E1
:105880002817390771F09093090480930804E09178
:105890000A04F0910B04309721F00680F781E02D87
:1058A00009950895209106043091070428173907B7
:1058B00071F09093070480930604E0910A04F0913C
:1058C0000B04309721F00084F185E02D09950895AF
:1058D000FC01329680911901882321F080913004D7
:1058E0009EE187FF96E080E0915008F408952191B1
:1058F0002223D1F38F5FF8CF662301F120911901A4
:105900002223F1F02091300427FF1AC0462F46953C
:10591000469546954E3190F4677021E030E002C024
:10592000220F331F6A95E2F7840F911DFC018281DB
:1059300090E02823392381E0232B69F480E0089547
:10594000FC01329608962191261721F0E817F907F5
:10595000D1F7F4CF81E008959C01FC0132969FEFCE
:1059600080E04191461751F09F3F19F4411101C069
:10597000982F8F5F8630A9F79F3F09F40895290F6C
:10598000311D97FD3A95F90162830895FC01329625
:1059900008962191261303C0DF0111971C92E81786
:1059A000F907B9F70895E62FE695E695E695EE3105
:1059B00068F4E80FF92FF11D677021E030E001C0B5
:1059C000220F6A95EAF78281822B82830895E62F5F
:1059D000E695E695E695EE3170F4E80FF92FF11DA6
:1059E000677021E030E001C0220F6A95EAF7209548
:1059F000828128232283089520911901222339F0DE
:105A00002091300427FF03C00E94D32C08950E94E8
:105A1000AC2C089520911901222339F020913004F3
:105A200027FF03C00E94E72C08950E94C62C08950A
:105A3000FC01329680911901882351F08091300445
:105A400087FF06C08EE1DF011D928A95E9F7089570
:105A500086E0F9CF08950E942A2D0895811106C08D
:105A600081E080930C040E942B2D089582E0F9CFF1
:105A700083E080930C040E942B2D08950E942E2D0C
:105A8000089581E080930C040E942B2D08950E94BC
:105A9000412D0895089508950E944B2D089508956D
:105AA00008950E944A2D0895CF930E944F2D0E9481
:105AB00011130E94502DC0E08C2F0E945A128111A8
:105AC00005C0CF5FC730C1F7CF91089581E0FCCF0B
:105AD00085B7806885BF85B7806885BF08951F92A8
